0029029070999991901010106004+64333+023450FM-12+000599999V0202701N015919999999N0000001N9-00781+99999102001ADDGF108991999999999999999999
0029029070999991901010113004+64333+023450FM-12+000599999V0202901N008219999999N0000001N9-00721+99999102001ADDGF104991999999999999999999
0029029070999991901010120004+64333+023450FM-12+000599999V0209991C000019999999N0000001N9-00941+99999102001ADDGF108991999999999999999999
0029227070999991902123106004+62167+030650FM-12+010299999V0200501N002119999999N0000001N9-01171+99999098641ADDGF108991999999999999999999
0029227070999991902123113004+62167+030650FM-12+010299999V0200501N002119999999N0000001N9-01281+99999099551ADDGF108991999999999999999999
0029227070999991902123120004+62167+030650FM-12+010299999V0200501N002119999999N0000001N9-01831+99999100111ADDGF100991999999999999999999